:020000020000FC
:020000000BC033
:100016005CC00FEF0ABB04BB00EC01BB10E009E1BA
:1000260010BD09B900E10AB90EE800BD579A7894E7
:1000360031E13093600032E23093610033E3309374
:10004600620034E43093630035E53093640036E6AD
:100056003093650037E73093660038E830936700E1
:1000660039E9309368003AEA309369003BEB309304
:100076006A003CEC30936B003DED30936C003EEE35
:1000860030936D003FEF30936E0030E030936F0099
:100096003FE500E0B0E03395303710F030510051C5
:1000A600A32F8C9157E0782F717060E062BB75BB0F
:1000B60060E862BB87955150B4F760E40BBB62BB46
:1000C60060E062BB039594E0E6CFF02E01E00016F7
:1000D60021F00CB1002E0F2D18950FEF101631F4EC
:1000E6000CB1102E00E6100E0F2D18950CB1A12D97
:1000F6002C90302E3220332049F0202A2C920024D6
:100106000FEF102E222433240F2D1895201A2C922F
:0E01160000240FEF102E222433240F2D1895F5
:00000001FF
